:020000040800F2
:1000000000500020FD390008BD040008BF040008AE
:10001000C1040008C3040008C50400080000000073
:10002000000000000000000000000000D1330008C4
:10003000C704000800000000713400088F2F00087A
:10004000453A0008453A0008453A0008453A000894
:10005000453A0008453A0008453A0008453A000884
:10006000453A0008453A0008453A0008453A000874
:10007000453A0008453A0008453A0008453A000864
:10008000453A0008453A0008453A0008453A000854
:10009000453A0008453A0008453A0008453A000844
:1000A000453A0008453A0008453A0008453A000834
:1000B000C9040008453A0008D9040008453A000878
:1000C000453A0008453A0008453A0008453A000814
:1000D000453A0008453A0008E9040008453A000896
:1000E000453A0008453A0008453A0008000000007B
:1000F0000000000000000000000000000000000000
:0C01000000000000000000005FF808F1A3
:1001100010B5054C237833B9044B13B10448AFF341
:1001200000800123237010BD10000020000000009B
:10013000BC3A000808B5034B1BB103490348AFF3B1
:10014000008008BD0000000014000020BC3A000838
:1001500008B50268034B9A4200D008BD00F050FC7D
:10016000FBE700BF0008004072B6FEE700B591B0A3
:100170002822002106A803F099FC00230193029392
:10018000039304930593012206924FF4803307935F
:100190000A9202220D920E934FF4E0130F9306A8D9
:1001A00000F056FC80B90F23019302210291002335
:1001B00003934FF480620492059301A800F07AFE45
:1001C00020B911B05DF804FBFFF7CEFFFFF7CCFFBD
:1001D00008B500F003FCFFF7C9FF00F00DF800F0D0
:1001E00073F800F0C5F800F0DDF802F0DDFE01F074
:1001F000E9FB02F0EBFEFEE72DE9F04188B00024B8
:1002000004940594069407942C4B9A6942F01002CA
:100210009A619A6902F010020092009A9A6942F07B
:1002200020029A619A6902F020020192019A9A6969
:1002300042F004029A619A6902F004020292029A60
:100240009A6942F008029A619B6903F008030393DC
:10025000039BDFF86C8022464FF40051404601F0CA
:1002600035F8184D22464FF40341284601F02EF888
:100270004FF400530493012605960694022707972E
:1002800004A9404600F010FF4FF400430493059684
:100290000694079704A9284600F006FF4FF4407320
:1002A00004931123059306960323079304A9284674
:1002B00000F0FAFE08B0BDE8F08100BF0010024077
:1002C00000100140000C014000B587B000230293EC
:1002D0000393049305930093019315484FF08042D4
:1002E000026041F61F42426083606322C260036184
:1002F000836100F083FA90B94FF48053029302A90E
:100300000B4800F0B3FA68B90023009301936946E3
:10031000074800F02BFB40B907B05DF804FBFFF77E
:1003200023FFE9E7FFF720FFEEE7FFF71DFFF3E705
:100330002C0000200368B3F1804F00D0704700B557
:1003400083B003F50433DA6942F00102DA61DB6954
:1003500003F001030193019B002205211C2001F001
:100360003DF81C2001F072F803B05DF804FB0000BA
:1003700008B50A480A4B03604FF4E1334360002399
:100380008360C36003610C2242618361C36101F039
:1003900013F900B908BDFFF7E7FEFBE77400002082
:1003A0000038014008B50A480A4B03604FF4E133B6
:1003B000436000238360C36003610C224261836158
:1003C000C36101F0F9F800B908BDFFF7CDFEFBE706
:1003D000BC0000200044004030B589B000230493E5
:1003E0000593069307930368304A934204D0304A3A
:1003F00093422BD009B030BD2E4B9A6942F4804213
:100400009A619A6902F480420092009A9A6942F0D5
:1004100004029A619B6903F004030193019B4FF46A
:10042000007304930223059303230793224C04A92A
:10043000204600F039FE4FF48063049300230593B7
:10044000069304A9204600F02FFED3E7194BDA6982
:1004500042F40032DA61DA6902F400320292029A5E
:100460009A6942F004029A619B6903F004030393C2
:10047000039B0423049302230593032307930E4D48
:1004800004A9284600F010FE0823049300240594D4
:10049000069404A9284600F007FE224605212620DE
:1004A00000F09CFF262000F0D1FFA3E700380140B8
:1004B000004400400010024000080140FEE7FEE753
:1004C000FEE7FEE7FEE7704708B5024800F0A4F833
:1004D00008BD00BF2C00002008B5024800F09CF8C1
:1004E00008BD00BF5C1A002008B5024801F020F9E1
:1004F00008BD00BFBC00002000B583B0114B9A6955
:1005000042F001029A619A6902F001020092009A97
:10051000DA6942F08052DA61DB6903F080530193BB
:10052000019B00220F216FF0010000F057FF064AE7
:10053000536823F0E06343F00073536003B05DF849
:1005400004FB00BF001002400000014010B4036A29
:10055000046A24F001040462846924F0F00C4CEA7B
:10056000021223F00A030B438261036210BC70473E
:1005700010B4036A046A24F010040462846924F449
:10058000704C4CEA023223F0A00343EA011382616B
:10059000036210BC7047836823F070030B4343F081
:1005A000070383607047000090F83D30DBB2012BF9
:1005B00027D1022380F83D300268D36843F001035D
:1005C000D3600368114A934210D0B3F1804F0DD02D
:1005D000A2F59432934209D002F58062934205D08D
:1005E0001A6842F001021A60002070479A6802F00F
:1005F0000702062A07D01A6842F001021A6000209A
:100600007047012070470020704700BF002C014058
:10061000704770477047704770B504460368DE68DE
:100620001D6915F0020F10D016F0020F0DD06FF0FB
:1006300002021A610123037703689B6913F0030F19
:100640005ED0FFF7E6FF0023237715F0040F12D0EA
:1006500016F0040F0FD023686FF004021A61022312
:10066000237723689B6913F4407F4FD02046FFF720
:10067000D0FF0023237715F0080F12D016F0080FD3
:100680000FD023686FF008021A61042323772368D0
:10069000DB6913F0030F40D02046FFF7BAFF0023B9
:1006A000237715F0100F12D016F0100F0FD023681B
:1006B0006FF010021A61082323772368DB6913F4B3
:1006C000407F31D02046FFF7A4FF0023237715F0A9
:1006D000010F02D016F0010F2DD115F0800F02D0BE
:1006E00016F0800F2FD115F0400F02D016F0400FFA
:1006F00031D115F0200F02D016F0200F33D170BD8C
:10070000FFF786FF2046FFF785FF9CE72046FFF7AF
:100710007FFF2046FFF77EFFABE72046FFF778FF1D
:100720002046FFF777FFBAE72046FFF771FF204624
:10073000FFF770FFC9E723686FF001021A612046D6
:10074000FFF706FDC9E723686FF080021A612046B3
:1007500000F043F9C7E723686FF040021A612046B2
:10076000FFF759FFC5E723686FF020021A612046A2
:1007700000F032F9C3E7000003681F4A90420AD034
:10078000B0F1804F07D0A2F59432904203D002F529
:100790008062904203D123F070034A681343164AE3
:1007A00090420AD0B0F1804F07D0A2F59432904227
:1007B00003D002F58062904203D123F44073CA68EB
:1007C000134323F080034A69134303608B68C362B9
:1007D0000B688362084B98420AD001234361036986
:1007E00013F0010F03D0036923F001030361704785
:1007F0000B690363F1E700BF002C014040B310B563
:10080000044690F83D30F3B1022384F83D30214690
:1008100051F8040BFFF7B0FF012384F8463084F849
:100820003E3084F83F3084F8403084F8413084F81A
:10083000423084F8433084F8443084F8453084F8FA
:100840003D30002010BD80F83C30FFF773FDDBE742
:100850000120704710B4846824F47F4C42EA0322DC
:100860000A4342EA0C02826010BC704790F83C30A8
:10087000012B78D010B50446012380F83C300223C8
:1008800080F83D300268936823F47F4323F07703B8
:1008900093600B68602B4CD029D8402B54D00CD9D6
:1008A000502B22D1CA6849680068FFF74FFE5021DB
:1008B0002068FFF770FE002005E0202B0DD009D93D
:1008C000302B0AD00120012384F83D30002384F826
:1008D0003C3010BD0BB1102B05D119462068FFF735
:1008E0005AFE0020EFE70120EDE70120EBE7B3F52A
:1008F000805F34D0B3F5005F0CD1CB684A6889685B
:100900000068FFF7A7FF2268936843F48043936071
:100910000020D8E7702B24D1CB684A68896800682A
:10092000FFF798FF2268936843F0770393600020F5
:10093000C9E7CA6849680068FFF71AFE60212068A5
:10094000FFF729FE0020BEE7CA6849680068FFF784
:10095000FDFD40212068FFF71EFE0020B3E70020C8
:10096000B1E70120AFE702207047000090F83C306B
:10097000012B2CD010B4012380F83C30022380F8E6
:100980003D3003685A689C6822F0700C0A6842EA9D
:100990000C025A6003680F4A93420AD0B3F1804FA9
:1009A00007D0A2F59432934203D002F580629342BD
:1009B00004D124F080044A6814439C60012380F829
:1009C0003D30002380F83C30184610BC70470220B0
:1009D000704700BF002C01407047704708B5074AB8
:1009E000136843F010031360032000F0E5FC0F20B0
:1009F00002F018FEFFF780FD002008BD0020024035
:100A0000034A1168034B1B780B441360704700BF07
:100A10000401002000000020014B1868704700BF4F
:100A20000401002082B0084B1B68084AA2FB032384
:100A30005B0A00FB03F3019300BF019B5A1E019266
:100A4000002BF9D102B0704708000020D34D62108E
:100A5000002800F0F18170B582B00446036813F0FD
:100A6000010F2CD0994B5B6803F00C03042B1DD0B5
:100A7000964B5B6803F00C03082B12D06368B3F548
:100A8000803F41D0002B55D103F1804303F504335F
:100A90001A6822F480321A601A6822F480221A60DE
:100AA00037E08A4B5B6813F4803FE7D0874B1B68C5
:100AB00013F4003F03D06368002B00F0BF8123686C
:100AC00013F0020F75D0814B5B6813F00C0F5FD0F1
:100AD0007E4B5B6803F00C03082B54D02369002B7A
:100AE00000F08A807A4B01221A60FFF795FF0546D5
:100AF000764B1B6813F0020F75D1FFF78DFF401B7B
:100B00000228F5D903209EE1704A136843F480332C
:100B10001360636843B3FFF77FFF05466B4B1B68A9
:100B200013F4003FCBD1FFF777FF401B6428F5D9C2
:100B3000032088E1B3F5A02F09D0644B1A6822F492
:100B400080321A601A6822F480221A60E1E703F109
:100B50008043A3F53C331A6842F480221A601A6875
:100B600042F480321A60D4E7FFF756FF0546574B30
:100B70001B6813F4003FA2D0FFF74EFF401B642810
:100B8000F5D903205FE1514B5B6813F4803FA5D199
:100B90004E4B1B6813F0020F03D02369012B40F06A
:100BA0004F814A4A136823F0F803616943EAC1039D
:100BB0001360236813F0080F33D0A369002B5CD0B7
:100BC000434B0122C3F88024FFF726FF05463F4B25
:100BD0005B6A13F0020F21D1FFF71EFF401B0228B2
:100BE000F5D903202FE1394A136823F0F80361692E
:100BF00043EAC1031360DCE7354B00221A60FFF7BC
:100C00000BFF0546314B1B6813F0020FD1D0FFF7E5
:100C100003FF401B0228F5D9032014E10120FFF750
:100C200001FF236813F0040F00F09680274BDB6967
:100C300013F0805F34D1254BDA6942F08052DA61DB
:100C4000DB6903F080530193019B0125214B1B6855
:100C500013F4807F26D0E368012B3DD0002B53D1C5
:100C600003F1804303F504331A6A22F001021A6289
:100C70001A6A22F004021A6233E0154B0022C3F80C
:100C80008024FFF7C9FE0546104B5B6A13F0020F84
:100C9000C7D0FFF7C1FE401B0228F5D90320D2E0E0
:100CA0000025D3E70B4A136843F480731360FFF702
:100CB000B3FE0646074B1B6813F4807FCBD1FFF7CA
:100CC000ABFE801B6428F5D90320BCE00010024075
:100CD00000004242007000405F4A136A43F0010383
:100CE0001362E36833B3FFF797FE06465A4B1B6A5D
:100CF00013F0020F2FD1FFF78FFE801B41F28833D4
:100D00009842F3D903209EE0052B09D0524B1A6A72
:100D100022F001021A621A6A22F004021A62E0E763
:100D20004D4B1A6A42F004021A621A6A42F001023A
:100D30001A62D6E7FFF770FE0646474B1B6A13F0B0
:100D4000020F08D0FFF768FE801B41F288339842FB
:100D5000F3D9032077E0E5B9E369002B72D03E4A6E
:100D6000526802F00C02082A56D0022B17D03B4BD7
:100D700000221A66FFF750FE0446374B1B6813F03B
:100D8000007F47D0FFF748FE001B0228F5D903205B
:100D900059E0314AD36923F08053D361DCE72F4B0C
:100DA00000221A66FFF738FE05462B4B1B6813F02E
:100DB000007F06D0FFF730FE401B0228F5D9032044
:100DC00041E0236AB3F5803F1AD023494B6823F4EE
:100DD0007413226A606A024313434B601F4B012263
:100DE0001A66FFF719FE04461B4B1B6813F0007FC1
:100DF0000ED1FFF711FE001B0228F5D9032022E0D7
:100E0000154A536823F40033A1680B435360DCE7B1
:100E1000002018E0002016E0012B16D00E4B5B6876
:100E200003F48031226A914211D103F47013626A93
:100E300093420ED1002006E001207047012002E01D
:100E4000012000E0002002B070BD0120FBE701207E
:100E5000F9E70120F7E700BF00100240000042421E
:100E60000F4B5B6803F00C02082A01D00D48704755
:100E7000C3F383420C49885C13F4803F0BD0084BCA
:100E80005B68C3F34043094AD35C064A02FB00F0A7
:100E9000B0FBF3F07047064B03FB00F0704700BF58
:100EA0000010024000127A00D43A0008E43A000828
:100EB00000093D00002800F0A08070B50D460446F2
:100EC000524B1B6803F007038B420BD24F4A136847
:100ED00023F007030B431360136803F007038B42EF
:100EE00040F08D80236813F0020F17D013F0040F29
:100EF00004D0474A536843F4E0635360236813F017
:100F0000080F04D0424A536843F460535360404A88
:100F1000536823F0F003A1680B435360236813F078
:100F2000010F31D06368012B20D0022B25D0384A25
:100F3000126812F0020F64D035494A6822F00302A9
:100F400013434B60FFF768FD0646314B5B6803F0C7
:100F50000C036268B3EB820F16D0FFF75DFD801BB8
:100F600041F288339842F0D9032045E0284A1268BC
:100F700012F4003FE0D101203EE0254A126812F051
:100F8000007FD9D1012037E0204B1B6803F0070315
:100F9000AB420AD91D4A136823F007032B431360A1
:100FA000136803F00703AB422DD1236813F0040F3D
:100FB00006D0174A536823F4E063E1680B4353609B
:100FC000236813F0080F07D0114A536823F46053C5
:100FD000216943EAC1035360FFF742FF0C4B5B6892
:100FE000C3F303130B4AD35CD8400B4B18600B4B75
:100FF000186802F017FB002070BD01207047012027
:10100000FAE70120F8E70120F6E700BF00200240E0
:1010100000100240E83A0008080000200400002008
:10102000014B1868704700BF0800002008B5FFF7A3
:10103000F7FF044B5B68C3F30223034AD35CD84039
:1010400008BD00BF00100240F83A000808B5FFF7DD
:10105000E7FF044B5B68C3F3C223034AD35CD84069
:1010600008BD00BF00100240F83A00080F230360DB
:101070000B4B5A6802F0030242605A6802F0F00219
:1010800082605A6802F4E062C2605B68DB0803F4C5
:10109000E0630361034B1B6803F007030B607047B9
:1010A000001002400020024070B582B00024A44627
:1010B000A6E0804DAA4210D007D97F4DAA420CD09D
:1010C00005F58035AA4208D013E0A5F58015AA429F
:1010D00003D005F57025AA4207D18A68002A58D0A6
:1010E000012A51D04361082403E0A5F58015AA42E6
:1010F000F3D0BEF1FF0F4ED80646BEF1FF0F4CD81D
:101100004FEA8C0233680F25954023EA050304FA61
:1011100002F2134333604B6813F0805F6ED0674B6D
:101120009A6942F001029A619B6903F001030193FD
:10113000019B4FEA9C02951C614B53F825600CF013
:1011400003039D000F23AB4026EA03065D4B984244
:1011500029D003F58063984200F08E8003F5806308
:10116000984200F08B8003F58063984219D00423E5
:101170001AE0CC68BDE7CC680434BAE7CC68083420
:10118000B7E7CC680C34B4E703610824B1E7002466
:10119000AFE70424ADE7061DAFE7ACF1080292000B
:1011A000B0E7032300E00023AB4033430232444D59
:1011B00045F822304B6813F4801F61D0424A93688F
:1011C00043EA0E0393604B6813F4001F5ED03E4A5F
:1011D000D36843EA0E03D3604B6813F4003F5BD03F
:1011E000394A536843EA0E0353604B6813F4803F57
:1011F00058D0354A136843EA0E0313600CF1010C12
:101200000A6832FA0CF353D0012303FA0CF302EA12
:10121000030E33EA0202F1D14A68122A3FF649AFBF
:10122000122A3FF666AF01A555F822F0DB10000840
:10123000731100087D1100088F110008F3100008D9
:10124000F3100008F3100008F3100008F310000872
:10125000F3100008F3100008F3100008F310000862
:10126000F3100008F3100008F3100008F310000852
:101270007711000883110008012395E7022393E703
:10128000114A936823EA0E0393609CE70E4AD368E1
:1012900023EA0E03D3609FE70B4A536823EA0E0349
:1012A0005360A2E7084A136823EA0E031360A5E718
:1012B00002B070BD0000221000003110001002408A
:1012C0000000014000080140000401400AB1016132
:1012D000704709040161704790F82130DBB2022B9E
:1012E00006D004238363002380F820300120704758
:1012F0000268136823F00E0313600268136823F07A
:1013000001031360036CC16B012202FA03F34B600B
:1013100080F82120002380F8203018467047000014
:1013200008B590F82130DBB2022B03D0042383638D
:10133000012008BD0268136823F00E0313600268E1
:10134000136823F0010313600368194A934214D011
:10135000143293421FD0143293421ED0143293425F
:101360001ED0143293421ED01432934202D04FF05A
:10137000807203E04FF4801200E001220D4B5A60AE
:10138000012380F82130002380F82030436B6BB1BB
:1013900098470020CDE71022F0E74FF48072EDE788
:1013A0004FF48052EAE74FF48032E7E70020C0E7CD
:1013B0000800024000000240074AD36823F4E063BB
:1013C0001B041B0C000200F4E060034343F0BF6306
:1013D00043F40033D360704700ED00E000B5194BD3
:1013E000DB68C3F30223C3F1070CBCF1040F28BF71
:1013F0004FF0040C03F1040EBEF1060F18D9033BA5
:101400004FF0FF3E0EFA0CFC21EA0C0199400EFA57
:1014100003F322EA0303194300280BDB0901C9B2D5
:1014200000F1604000F5614080F800135DF804FBB6
:101430000023E5E700F00F000901C9B2024B19547F
:10144000F4E700BF00ED00E014ED00E0002807DB4A
:1014500000F01F02400901239340024A42F8203065
:10146000704700BF00E100E0026802F10C0353E89E
:10147000003F23F490730C3242E800310029F3D18D
:10148000026802F1140353E8003F23F00103143211
:1014900042E800310029F3D1036B012B05D0202352
:1014A00080F84230002303637047026802F10C03A6
:1014B00053E8003F23F010030C3242E800310029CA
:1014C000F3D1ECE790F84130DBB2212B01D00220C0
:1014D00070478368B3F5805F17D0036A5A1C0262B5
:1014E0001A7803685A60C38C9BB2013B9BB2C384D9
:1014F0004BB90268D36823F08003D3600268D368D5
:1015000043F04003D360002070470369002BE4D10F
:10151000036A1B880268C3F308035360036A02333B
:101520000362E0E710B504460268136923F44053F0
:10153000C1680B43136183680269134342691A430C
:101540000168CB6823F4B05323F00C031343CB6042
:101550000268536923F4407381690B435361026845
:10156000134B9A4220D0FFF761FD024602EB820244
:1015700002EB820263689B00B2FBF3F20D48A0FB12
:1015800002314909642303FB11231B013233A0FB01
:1015900003235B0903F0F00202EB011203F00F03D7
:1015A000216813448B6010BDFFF750FD0246DDE754
:1015B000003801401F85EB5160B310B5044690F828
:1015C000413013B3242384F841302268D36823F4D4
:1015D0000053D3602046FFF7A5FF2268136923F468
:1015E000904313612268536923F02A0353612268F0
:1015F000D36843F40053D36000206064202384F850
:10160000413084F84230606310BD80F84030FEF70E
:10161000E3FED7E701207047704708B50168CA6844
:1016200022F04002CA60202280F84120FFF7F4FF38
:10163000002008BD7047704708B5406A0023C38585
:10164000C384FFF7F8FF08BD704790F84230DBB263
:10165000222B69D18368B3F5805F4FD0826AB3F5DE
:10166000805F04D0002B56D10369002B53D103684F
:101670005B681370836A01338362C38D9BB2013B45
:101680009BB2C385002B51D100B583B00268D368EB
:1016900023F02003D3600268D36823F48073D360FF
:1016A0000268536923F001035361202380F842301C
:1016B00000234363036B012B33D1002303630268D0
:1016C00002F10C0353E8003F23F010030C3242E810
:1016D00000310029F3D103681A6812F0100F06D008
:1016E000002201921A6801925B680193019B818D2F
:1016F000FFF7AAFF002003B05DF804FB0269002A8F
:10170000ACD1826A03685B68C3F308031380836A01
:1017100002338362B1E703685B6803F07F031370F1
:10172000A8E7FFF787FFE5E7022070470020704732
:1017300030B583B0044602681368D068516913F06D
:101740000F0505D113F0200F02D010F0200F19D192
:101750002DB111F0010119D110F4907F16D1216B38
:1017600001297DD013F0800F03D010F0800F40F0DE
:10177000188113F0400F03D010F0400F40F0158196
:1017800003B030BD2046FFF760FFF9E713F0010F0B
:1017900006D010F4807F03D0626C42F001026264D4
:1017A00013F0040F04D019B1626C42F002026264BB
:1017B00013F0020F04D019B1626C42F004026264AB
:1017C00013F0080F07D010F0200F00D119B1626C90
:1017D00042F008026264626C002AD1D013F0200F3C
:1017E00002D010F0200F29D123685B6903F0400379
:1017F000626C12F0080F00D163B32046FFF734FE8D
:1018000023685B6913F0400F20D0226802F11403B3
:1018100053E8003F23F04003143242E8003100292E
:10182000F3D1E36B73B1634A5A63E06BFFF778FD62
:101830000028A5D0E06B436B9847A1E72046FFF74F
:1018400004FFD1E72046FFF7F6FE99E72046FFF7B1
:10185000F2FE95E72046FFF7EEFE002363648FE774
:1018600013F0100F3FF47EAF10F0100F3FF47AAF7B
:10187000002301931368019353680193019B5369FB
:1018800013F0400F51D0E26B13685B689BB2002BE2
:101890003FF476AFA18D99427FF672AFE3859369ED
:1018A000202B37D0226802F10C0353E8003F23F4C9
:1018B00080730C3242E800310029F3D1226802F132
:1018C000140353E8003F23F00103143242E80031CF
:1018D0000029F3D1226802F1140353E8003F23F0FA
:1018E0004003143242E800310029F3D1202384F868
:1018F000423000232363226802F10C0353E8003FC7
:1019000023F010030C3242E800310029F3D1E06BE0
:10191000FFF7E2FC02236363A18DE38D9BB2C91A3A
:1019200089B22046FFF790FE2AE7A18DE38D9BB296
:10193000C91A89B2E38D9BB2002B3FF421AF002975
:101940003FF41EAF226802F10C0353E8003F23F47A
:1019500090730C3242E800300028F3D1226802F183
:10196000140353E8003F23F00103143242E800302F
:101970000028F3D1202384F8423000232363226817
:1019800002F10C0353E8003F23F010030C3242E84D
:1019900000300028F3D1022363632046FFF754FE92
:1019A000EEE62046FFF78EFDEAE62046FFF735FE1D
:1019B000E6E600BF39160008704708B5012001F0BF
:1019C0007FFBFBE710B584B001F07BFF01F01FFF48
:1019D0000D4A00210D4801F015FB0D4B186003ABBB
:1019E000019301240094002380220A490A4800F050
:1019F00076FD02AB0193009400238022074908483A
:101A000000F06DFD04B010BD203B0008BB190008BC
:101A100008010020003B0008ED360008083B0008E4
:101A20007139000800F1080343604FF0FF32826013
:101A3000C3600361002303607047002303617047A4
:101A400043684B609A688A605160996008610368D6
:101A500001330360704730B40D68B5F1FF3F11D01A
:101A600000F108031C465B681A68AA42FAD9636849
:101A70004B6099608C6061600861036801330360AA
:101A800030BC70470469F2E70369416882688A6084
:101A9000416851605A68824206D0002202611A6889
:101AA000013A1A601868704782685A60F5E710B505
:101AB000044601F09FFCA26BE36B9A4204D0002421
:101AC00001F0BAFC204610BD0124F9E710B5044628
:101AD00001F090FCA36B23B9012401F0ADFC20467A
:101AE00010BD0024F9E770B504461546866B026CFC
:101AF0005AB903681BB100200136A66370BD806827
:101B000000F0D4FF0023A360F6E76DB9406801F050
:101B1000BFFF226C636813446360A268934219D3C9
:101B2000236863602846E7E7C06801F0B1FF226CD4
:101B30005142E3689B1AE3602268934202D2A36891
:101B40000B44E360022D01D00020D5E726B1013E11
:101B50000020D1E72846CFE70020CDE708B50346AF
:101B6000026C62B10846D9681144D960D3F808C044
:101B7000614501D31968D960D96801F089FF08BDB2
:101B800038B5054601F036FC95F8454064B201E0F1
:101B9000013C64B2002C0ADD6B6A43B105F12400FC
:101BA00000F0DAFE0028F3D000F06AFFF0E7FF2330
:101BB00085F8453001F040FC01F01CFC95F84440EC
:101BC00064B201E0013C64B2002C0ADD2B6943B130
:101BD00005F1100000F0C0FE0028F3D000F050FF27
:101BE000F0E7FF2385F8443001F026FC38BD38B516
:101BF000E0B10D46044601F0FDFB2368E26B216C69
:101C000001FB0230A0600020A0636360013A02FB88
:101C10000133E360FF2384F8443084F84530FDB994
:101C2000236963B901F008FC012038BD4FF050036F
:101C300083F31188BFF36F8FBFF34F8FFEE704F17B
:101C4000100000F089FE0028ECD04FF0E0234FF0A8
:101C50008052C3F8042DBFF34F8FBFF36F8FE1E7BE
:101C600004F11000FFF7DEFE04F12400FFF7DAFEB6
:101C7000D8E738B51D46049C0B4649B92460E0639B
:101C8000236401212046FFF7B2FF84F84C5038BD91
:101C90002260F4E740B94FF0500383F31188BFF39B
:101CA0006F8FBFF34F8FFEE710B584B01C4684469C
:101CB00053B192B189B94FF0500383F31188BFF348
:101CC0006F8FBFF34F8FFEE74FF0500383F3118800
:101CD000BFF36F8FBFF34F8FFEE76AB150230393BB
:101CE000039B502B13D04FF0500383F31188BFF3A5
:101CF0006F8FBFF34F8FFEE70029EFD04FF05003F7
:101D000083F31188BFF36F8FBFF34F8FFEE7039B01
:101D1000012384F8463000949DF818306046FFF7A0
:101D2000A8FF204604B010BDF0B585B0019288B17F
:101D30000F461D460446B1B1022D20D1E36B012BA5
:101D40001DD04FF0500383F31188BFF36F8FBFF3A3
:101D50004F8FFEE74FF0500383F31188BFF36F8F6F
:101D6000BFF34F8FFEE7036C002BE5D04FF050031D
:101D700083F31188BFF36F8FBFF34F8FFEE700F03F
:101D800085FE064658B9019B002B48D04FF0500302
:101D900083F31188BFF36F8FBFF34F8FFEE70026E9
:101DA0003DE02A4639462046FFF79DFE636A7BB92F
:101DB00048B14FF0E0234FF08052C3F8042DBFF339
:101DC0004F8FBFF36F8F01F037FB012005B0F0BDDF
:101DD00004F1240000F0C0FD0028F4D04FF0E0230F
:101DE0004FF08052C3F8042DBFF34F8FBFF36F8FB6
:101DF000E9E701F021FB0020E8E702A800F0F2FD8E
:101E0000012619E0002384F8443021E0002384F8FF
:101E1000453023E02046FFF7B3FE00F07DFC01F0E3
:101E2000E9FAA26BE36B9A42BBD3022DB9D0019BB6
:101E3000002BDED0002EE0D001F0FEFA00F0D2FB45
:101E400001F0D8FA94F8442052B2B2F1FF3FD9D051
:101E500094F8452052B2B2F1FF3FD7D001F0ECFA2E
:101E600001A902A800F0CAFDD8B92046FFF71FFE5D
:101E70000028CFD0019904F1100000F039FD204670
:101E8000FFF77EFE00F048FC0028C8D14FF0E023A9
:101E90004FF08052C3F8042DBFF34F8FBFF36F8F05
:101EA000BDE72046FFF76CFE00F036FC00208DE712
:101EB0002DE9F84390B10F4616461C460546B1B1D0
:101EC000022C20D1EB6B012B1DD04FF0500383F37C
:101ED0001188BFF36F8FBFF34F8FFEE74FF05003B2
:101EE00083F31188BFF36F8FBFF34F8FFEE7036C4F
:101EF000002BE5D04FF0500383F31188BFF36F8FB1
:101F0000BFF34F8FFEE701F05FFBEFF311894FF056
:101F1000500383F31188BFF36F8FBFF34F8FAA6B0A
:101F2000EB6B9A4206D3022C04D0002089F311886F
:101F3000BDE8F88395F845804FFA88F8AB6B2246E8
:101F400039462846FFF7CFFDB8F1FF3F06D008F12C
:101F500001035BB285F845300120E7E76B6A0BB9F6
:101F60000120E3E705F1240000F0F6FC18B126B1EA
:101F700001203060DAE70120D8E70120D6E7F0B58C
:101F800085B0019290B10F460446C1B100F07EFDCC
:101F9000064600BB019B002B5ED04FF0500383F33D
:101FA0001188BFF36F8FBFF34F8FFEE74FF05003E1
:101FB00083F31188BFF36F8FBFF34F8FFEE7036C7E
:101FC000002BE3D04FF0500383F31188BFF36F8FE2
:101FD000BFF34F8FFEE700263EE039462046FFF76D
:101FE000BDFD013DA563236923B901F025FA012058
:101FF00005B0F0BD04F1100000F0AEFC0028F4D0F4
:102000004FF0E0234FF08052C3F8042DBFF34F8F01
:10201000BFF36F8FE9E701F00FFA0020E8E702A8AD
:1020200000F0E0FC012621E0002384F8443029E0A0
:10203000002384F845302BE02046FFF7A1FD00F097
:102040006BFB09E02046FFF79BFD00F065FB204697
:10205000FFF73CFD00283FD101F0CCF9A56B002D26
:10206000BBD1019B002BD6D0002ED8D001F0E4F9D3
:1020700000F0B8FA01F0BEF994F844305BB2B3F165
:10208000FF3FD1D094F845305BB2B3F1FF3FCFD0E2
:1020900001F0D2F901A902A800F0B0FC0028D1D1CA
:1020A0002046FFF713FD0028C6D0019904F1240053
:1020B00000F01EFC2046FFF763FD00F02DFB00281A
:1020C000CAD14FF0E0234FF08052C3F8042DBFF384
:1020D0004F8FBFF36F8FBFE7002089E70023072BE7
:1020E0000CD8074A52F833200AB10133F7E7044A03
:1020F00042F8331002EBC30358607047704700BFCB
:102100000C01002070B504460D46164601F072F928
:1021100094F844305BB2B3F1FF3F0DD094F84530F2
:102120005BB2B3F1FF3F0BD001F086F9A36B5BB15B
:102130002046FFF725FD70BD002384F84430EDE70D
:10214000002384F84530EFE73246294604F12400A5
:1021500000F0E6FBECE70000084B1B681B6823B9A6
:10216000074B4FF0FF321A607047044B1B68DB6867
:10217000DB685A68024B1A60704700BF50010020AC
:10218000F80500202DE9F04780460D461746994690
:10219000089EDDF824A00A9C9200A521206B01F086
:1021A00085FC236B07F18042013A03EB820727F09D
:1021B0000707B5B34FF0000CBCF10F0F0BD815F8A3
:1021C0000C2004EB0C0383F8342015F80C3013B109
:1021D0000CF1010CF0E7002384F84330372E00D9CE
:1021E0003726E662E66400252565201DFFF725FCFD
:1021F00004F11800FFF721FC2461C6F13806A6613E
:102200006462656584F858504A464146384601F094
:10221000CBF82060BAF1000F01D0CAF80040BDE849
:10222000F087002384F83430D8E7000038B5002464
:1022300007E004EB840293000E481844FFF7F2FB1A
:102240000134372CF5D90C4D2846FFF7EBFB0B4C2E
:102250002046FFF7E7FB0A48FFF7E4FB0948FFF7D2
:10226000E1FB0948FFF7DEFB084B1D60084B1C60D3
:1022700038BD00BF58010020CC050020E00500203B
:1022800004060020300600201C060020500100201B
:102290005401002010B5044601F0ACF8224A13683E
:1022A00001331360214B1B685BB1214B1B686BB979
:1022B0001E4B1B68DA6AE36A9A4207D81B4B1C6004
:1022C00004E01A4B1C601368012B29D0194A1368CB
:1022D000013313606364E06A174B1B68984201D9AD
:1022E000154B186000EB8000211D144B03EB8000A0
:1022F000FFF7A6FB01F0A0F80D4B1B687BB10B4B61
:102300001B68DA6AE36A9A4209D24FF0E0234FF081
:102310008052C3F8042DBFF34F8FBFF36F8F10BDF2
:10232000FFF784FFD2E700BFB80500204C01002072
:1023300018060020C4050020C80500205801002010
:1023400010B5044690F8593063B1012B11D0022B1F
:102350000ED04FF0500383F31188BFF36F8FBFF39C
:102360004F8FFEE7006B00F0B1FF204600F0AEFF9C
:1023700010BD00F0ABFFFBE70F4B1B68D3B110B5EE
:1023800001F038F80D4BDB68DC68201DFFF77CFBA3
:102390000B4A1368013B1360074A1368013B136043
:1023A00001F04AF82046FFF7CBFF034B1B68002BD8
:1023B000E6D110BD704700BFBC05002030060020EC
:1023C000B805002008B5FFF7D7FF074B1B68012BA6
:1023D000F9D94FF0E0234FF08052C3F8042DBFF33A
:1023E0004F8FBFF36F8FEEE75801002070B50446A2
:1023F0000D46174B1E68174B18680430FFF744FB57
:10240000B4F1FF3F0DD03444124B1B685C60A64210
:1024100010D9114B18680F4B19680431FFF71BFBDB
:1024200070BD002DEFD00B4B196804310B48FFF73E
:1024300007FBF5E70A4B1868064B19680431FFF7EC
:102440000AFB084B1B68A342EAD9064B1C60E7E76E
:10245000440600204C010020540100201C060020EE
:1024600050010020F805002030B587B00B9C7CB1EE
:102470000C9DB5B15C250495049D5C2D1AD04FF0E0
:10248000500383F31188BFF36F8FBFF34F8FFEE7C5
:102490004FF0500383F31188BFF36F8FBFF34F8F5B
:1024A000FEE74FF0500383F31188BFF36F8FBFF344
:1024B0004F8FFEE7049D0C9D2C63022485F8594044
:1024C00000240394029505AC01940A9C0094FFF744
:1024D00059FE0C98FFF7DEFE059807B030BD2DE9D8
:1024E000F04385B00746884614461E46900000F02B
:1024F0006FFE00B381465C2000F06AFE0546B0B175
:10250000C0F83090E5B1002385F859300393029567
:102510000D9B01930C9B009333462246414638465F
:10252000FFF730FE2846FFF7B5FE012005E04846DC
:1025300000F0CCFEE6E74FF0FF3005B0BDE8F083D9
:102540004FF0FF30F9E7000010B588B00024059483
:10255000069407AA06A905A800F0C0FD059B0293F2
:10256000069B019300942346079A18491848FFF7E1
:102570007BFF184B186040B100F04CFB012806D0DF
:10258000B0F1FF3F18D008B010BD0020F6E74FF0C3
:10259000500383F31188BFF36F8FBFF34F8F0E4B40
:1025A0004FF0FF321A600D4B01221A600C4B0022D3
:1025B0001A6000F0A9FFE6E74FF0500383F311889B
:1025C000BFF36F8FBFF34F8FFEE700BF443B0008A0
:1025D000C5230008F4050020F80500201806002097
:1025E00044060020024A136801331360704700BF9D
:1025F000C0050020014B1868704700BF440600204A
:10260000F8B53A4B1B68002B69D1394B1D68013571
:102610001D60C5B9374B1B681B6843B14FF05003B1
:1026200083F31188BFF36F8FBFF34F8FFEE7314AFB
:102630001168314B186810601960304A1368013313
:102640001360FFF789FD2E4B1B68AB423DD9002775
:102650002C4B1B68DB6A03EB83039A002A4B9B58C5
:10266000012B00D90127294B1B68002B3CD00127E7
:102670003AE001271F4B1B681B6843B31D4B1B68C7
:10268000DB68DC6863689D4226D3261D3046FFF771
:10269000FBF9A36A1BB104F11800FFF7F5F9E36A2F
:1026A0001B4A1268934201D9194A136003EB830352
:1026B0009A00314614481044FFF7C2F9E26A114B00
:1026C0001B68DB6A9A42D4D2D4E70027D2E70C4BCE
:1026D0004FF0FF321A60BBE7094A1360B8E70D4AB2
:1026E00013680133136000273846F8BDC005002089
:1026F000440600205001002054010020FC05002069
:10270000F80500204C010020580100204806002058
:10271000C80500200006002038B5354B1B6843B9BA
:102720004FF0500383F31188BFF36F8FBFF34F8FC8
:10273000FEE700F05FFE2E4B1A68013A1A601B6834
:10274000002B4FD12B4B1B680BB900244BE000240E
:10275000294B1B681BB3284BDB68DC6804F11800AD
:10276000FFF792F9251D2846FFF78EF9E06A234B03
:102770001B68984201D9214B186000EB8000294664
:102780001F4B03EB8000FFF75BF9E26A1D4B1B68F0
:10279000DB6A9A42DCD31C4B01221A60D8E70CB1E9
:1027A000FFF7DAFC194B1C6884B9174B1C68D4B1CD
:1027B0004FF0E0234FF08052C3F8042DBFF34F8F4A
:1027C000BFF36F8F01240EE0013C07D0FFF718FF25
:1027D0000028F9D00C4B01221A60F5E70B4B0022C0
:1027E0001A60E2E7002400F027FE204638BD00BF53
:1027F000C0050020B805002004060020C805002000
:10280000580100204C01002048060020000600204E
:1028100010B5A8B10446104B1B6843B14FF05003EC
:1028200083F31188BFF36F8FBFF34F8FFEE7FFF77E
:10283000D9FE00212046FFF7D9FDFFF76DFF48B90B
:102840004FF0E0234FF08052C3F8042DBFF34F8FB9
:10285000BFF36F8F10BD00BFC00500201F4B1B686A
:102860001BB11F4B01221A6070471D4B00221A60DA
:102870001C4B1B6803EB83018A001B498A585AB919
:102880000BB1013BF6E74FF0500383F31188BFF320
:102890006F8FBFF34F8FFEE703EB830082000A4484
:1028A00050684068506003EB830C4FEA8C0208329A
:1028B000114488420BD003EB830291000A4A0A4478
:1028C0005268D168094A1160064A1360704740682F
:1028D00062469100044A0A445060ECE7C0050020BB
:1028E00048060020C8050020580100204C010020A7
:1028F00058B110B50C46094A11681831FFF7ABF80A
:1029000001212046FFF772FD10BD4FF0500383F305
:102910001188BFF36F8FBFF34F8FFEE74C0100208C
:1029200038B570B10D4614460A4A11681831FFF7E0
:1029300087F80CB14FF0FF3521462846FFF756FDCA
:1029400038BD4FF0500383F31188BFF36F8FBFF38F
:102950004F8FFEE74C01002038B5C368DC6824B314
:1029600004F118052846FFF78FF8184B1B682BBB9E
:10297000251D2846FFF788F8E06A154B1B6898422A
:1029800001D9134B186000EB80002946114B03EB73
:102990008000FFF755F8E26A0F4B1B68DB6A9A422A
:1029A00011D901200D4B186038BD4FF0500383F34F
:1029B0001188BFF36F8FBFF34F8FFEE7294608489A
:1029C000FFF73EF8E7E70020EEE700BFC005002074
:1029D000C8050020580100204C01002048060020B6
:1029E00004060020034B1B680360034B1B68436015
:1029F000704700BFFC05002044060020D8B170B528
:102A00000C46054601B300F0F5FC1B4B19686B68DA
:102A1000C81A2268B2F1FF3F27D0184E3668D5F8A1
:102A200000C0B44501D08B4224D9824215D800237E
:102A3000236001241AE04FF0500383F31188BFF3A1
:102A40006F8FBFF34F8FFEE74FF0500383F3118872
:102A5000BFF36F8FBFF34F8FFEE75B1A1344236002
:102A60002846FFF7BFFF002400E0002400F0E4FC4C
:102A7000204670BD0124F9E744060020FC05002033
:102A8000014B01221A60704748060020054B1B6865
:102A900033B1054B1B680BB1002070470220704713
:102AA0000120704718060020C005002000283BD0F8
:102AB00038B504461E4B1B68834208D04FF05003C4
:102AC00083F31188BFF36F8FBFF34F8FFEE7036D62
:102AD00043B94FF0500383F31188BFF36F8FBFF3F7
:102AE0004F8FFEE7013B0365C16AC26C91421DD066
:102AF0000BB1002038BD051D2846FEF7C5FFE06C70
:102B0000E062C0F13803A3610A4B1B68984201D907
:102B1000084B186000EB80002946074B03EB800050
:102B2000FEF78EFF0120E5E7002070470020E1E777
:102B30004C010020C805002058010020064B1A68EF
:102B400013682BB90123036023B9D3681868704751
:102B50000023F8E7002070474C06002008B54160CC
:102B6000006191420CD8D21A83699A4201D30120A4
:102B700008BD011D094B1868FEF76DFF0020F7E73F
:102B80009A4201D2994206D2011D054B1868FEF700
:102B900062FF0020ECE70120EAE700BF50060020BA
:102BA0004C06002030B583B000F024FC114B1B68AC
:102BB0001BB100F041FC03B030BD0F4D2846FEF7BD
:102BC00031FF0E4C2046FEF72DFF0D4B1D600D4BC7
:102BD0001C60002300930C4B0C4A10210A20FFF7C5
:102BE00059F8044B18600028E3D00949FFF776FA3A
:102BF000DFE700BF70070020F40600200807002070
:102C00004C0600205006002020070020540600201B
:102C10004C3B000810B588B0FFF7C4FF124B1B688F
:102C2000CBB100240594069407AA06A905A800F0D4
:102C300061FA059B0293069B0193022300932346AE
:102C4000079A0A490A48FFF70FFC0A4B186010B1AF
:102C5000012008B010BD4FF0500383F31188BFF37B
:102C60006F8FBFF34F8FFEE770070020543B0008C3
:102C7000792F000874070020B8B19C460346184815
:102C8000006858B300B585B0009101920293052900
:102C90001CDCFFF7FBFE022810D000231A46694611
:102CA0000F480068FFF740F815E04FF0500383F33A
:102CB0001188BFF36F8FBFF34F8FFEE70023069A93
:102CC000694607480068FFF72FF804E000236246D2
:102CD0006946FFF7EDF805B05DF804FB002070478A
:102CE0007007002070B582B01B4B1B681A6862B376
:102CF000DB681E68DC68251D2846FEF7C5FE236AD2
:102D00002046984794F8283013F0040FECD0A369BC
:102D100033449E4207D26360246129460E4B1868F3
:102D2000FEF799FEE0E7002100910B46324620466F
:102D3000FFF7A2FF0028D7D14FF0500383F311888B
:102D4000BFF36F8FBFF34F8FFEE7044A106802494D
:102D50000860136002B070BD4C06002050060020D1
:102D600038B50546FFF746FC0446074B1B6883420F
:102D700005D800232B60044B1C60204638BDFFF7AC
:102D8000B1FF01232B60F6E71C07002070B582B06D
:102D900006460D4617490968C968CC68201DFEF72C
:102DA00073FE94F828C01CF0040F08D12CF0010C1D
:102DB00084F828C0236A2046984702B070BDA169F4
:102DC00033462A4631442046FFF7C8FE0028F1D09A
:102DD000002100910B4632462046FFF74DFF0028A8
:102DE000E8D14FF0500383F31188BFF36F8FBFF327
:102DF0004F8FFEE74C06002070B582B006460C46A9
:102E0000FFF7F0FB01A8FFF7ABFF019B33BB0546C3
:102E10000CB9B04219D224B1124A12681268DAB958
:102E200001242246711B104B1868FFF76BF9FFF75E
:102E300073FCA8B94FF0E0234FF08052C3F8042D83
:102E4000BFF34F8FBFF36F8F0AE0FFF765FC294692
:102E50003046FFF79BFF03E01C46E2E7FFF75CFC10
:102E600002B070BD500600207007002010B588B079
:102E700002E0049B002B0FDA002204A93D4B1868E6
:102E8000FFF77DF8002873D0049B002BF1DA079937
:102E90000698059B9847ECE7069C636913B1201DD3
:102EA000FEF7F2FD03A8FFF75BFF049B092BE3D8B5
:102EB000DFE803F00505053037500505303794F895
:102EC000283043F0010384F82830059BA1690246AD
:102ED00019442046FFF742FE0028CDD0236A204641
:102EE000984794F8283013F0040FC5D0A269002148
:102EF00000910B46059802442046FFF7BDFE0028CE
:102F0000BAD14FF0500383F31188BFF36F8FBFF333
:102F10004F8FFEE794F8283023F0010384F828301F
:102F2000AAE794F8283043F0010384F82830059983
:102F3000A16131B10346024601442046FFF70EFE6F
:102F40009AE74FF0500383F31188BFF36F8FBFF3FD
:102F50004F8FFEE794F8283013F0020F04D023F0CF
:102F6000010384F8283087E7204600F0AFF983E7B3
:102F700008B010BD7007002000B583B001A8FFF7AE
:102F8000DDFD0199FFF738FFFFF770FFF6E708B5A1
:102F90004FF0E0231B69FFF779FD012800D108BD40
:102FA00000F088FAFBE70000EFF305832BB9064B2E
:102FB000186828B901221A6070476FF00500704741
:102FC0004FF0FF30704700BFD4090020EFF30583B6
:102FD00073B90A4B1B68012B0DD110B50024084BA7
:102FE000DC77064B02221A60FFF7AEFA204610BDCE
:102FF0006FF0050070474FF0FF307047D409002094
:1030000000ED00E0F0B587B000240594EFF30584EF
:1030100074BB68B322B31568936903B918235C1EA7
:10302000372C49D8546814F0010F47D156696EB156
:103030004FEA960C94682CB1D7685B2F02D91769B8
:1030400007B1C6B92CB14FF0FF340EE04FF0800C41
:10305000F0E7D4688CB9146994B14FF0FF3404E000
:103060001546002418234FF0800C012C0AD0ACB177
:10307000059807B0F0BD0124F7E74FF0FF34F4E7FF
:103080000024F2E7146992680292019400930B46BF
:1030900062462946FFF7E8F90590E9E705AA01929B
:1030A00000930B461FFA8CF22946FFF718FA012805
:1030B000DED000230593DBE70020DAE70020D8E725
:1030C00008B5EFF3058333B908B9002008BDFFF751
:1030D0009FFB0020FAE76FF00500F7E7034B036062
:1030E000034B0B6080231360704700BF78090020FA
:1030F00078070020034B0360034B0B604FF4807391
:1031000013607047D80D0020D8090020124A12F031
:10311000070F1ED0D11D21F00701C1F540631344F4
:103120000A460E480260002141601344083B23F028
:1031300007030B48036059601960991A51601360C6
:10314000084B1960084B1960084B4FF000421A6099
:1031500070474FF44063E4E7380E00204C1A00201B
:10316000340E0020401A00203C1A0020381A00209B
:10317000154B1A461B688342FBD3516802EB010CC6
:10318000844509D0416800EB010C634509D0036018
:10319000904218D01060704740680144516010465A
:1031A000F0E710B4094C2468A3420AD05B681944C4
:1031B000416013681B680360904200D0106010BC2F
:1031C00070470460F8E770474C1A0020340E002066
:1031D00070B50546FFF706FA364B1B68A3B1364BB0
:1031E0001B681D424ED135B1083515F0070F02D0CE
:1031F00025F007050835002D46D0304B1B68AB4243
:1032000051D32F4A146804E0FFF780FFE7E7224616
:103210001C466368AB4202D22368002BF7D1254BD2
:103220001B68A34241D016680836236813606368A0
:103230005B1B102B10D9601910F0070F08D04FF04E
:10324000500383F31188BFF36F8FBFF34F8FFEE7F7
:1032500043606560FFF78CFF626818490B689B1A32
:103260000B60184909688B4201D216490B60124B5A
:103270001B681343636000232360134A1368013300
:10328000136002E0002600E00026FFF745FA16F082
:10329000070F0CD04FF0500383F31188BFF36F8FEB
:1032A000BFF34F8FFEE70026EFE70026EDE730463D
:1032B00070BD00BF340E0020381A00203C1A0020D8
:1032C0004C1A0020401A0020441A0020002834D054
:1032D00038B50446A0F1080550F8043C174A1268B6
:1032E000134208D14FF0500383F31188BFF36F8F5F
:1032F000BFF34F8FFEE750F8081C41B14FF0500369
:1033000083F31188BFF36F8FBFF34F8FFEE723EA7C
:10331000020340F8043CFFF765F954F8041C084A1E
:1033200013680B4413602846FFF722FF054A136811
:1033300001331360FFF7F0F938BD7047381A0020E9
:103340003C1A0020481A002082B0002301930D4B44
:103350001B68B3F1FF3F08D04FF0500383F311888F
:10336000BFF36F8FBFF34F8FFEE74FF0500383F330
:103370001188BFF36F8FBFF34F8F019B002BFCD0E1
:1033800002B070470C00002006480068006880F317
:10339000088862B661B6BFF34F8FBFF36F8F00DF4F
:1033A00000BF000008ED00E04FF0807340F8043CDF
:1033B00021F0010140F8081C034B40F80C3C40F898
:1033C000202C4038704700BF49330008000000003F
:1033D000074B19680868B0E8F00F80F30988BFF35D
:1033E0006F8F4FF0000080F311884EF00D0E704784
:1033F0004C0100204FF0500383F31188BFF36F8F0F
:10340000BFF34F8F0B4A136801331360012B00D0B9
:1034100070474FF0E023D3F8043D13F0FF0FF7D0CF
:103420004FF0500383F31188BFF36F8FBFF34F8FBB
:10343000FEE700BF0C000020094B1B6843B94FF0AA
:10344000500383F31188BFF36F8FBFF34F8FFEE7F5
:10345000013B034A13600BB983F31188704700BF27
:103460000C00002000000000000000000000000030
:10347000EFF30980BFF36F8F0D4B1A6820E9F00F4F
:1034800010602DE908404FF0500080F31188FFF7DD
:10349000E5F94FF0000080F31188BDE80840196895
:1034A0000868B0E8F00F80F30988BFF36F8F7047AA
:1034B0004C01002008B54FF0500383F31188BFF38F
:1034C0006F8FBFF34F8FFFF79BF828B14FF0E023CA
:1034D0004FF08052C3F8042D002383F3118808BDF8
:1034E0004FF0E022002313619361054B1B680549EF
:1034F000A1FB03139B09013B536107231361704731
:1035000008000020D34D621010B582B02A4B1A7803
:10351000D2B20192FF221A701B78DBB28DF8033011
:103520009DF8033003F05003244A1370244B072204
:103530001A6009E0224A1368013B13609DF80330CA
:103540005B00DBB28DF803309DF8033013F0800F81
:10355000F0D11B4B1B68032B08D04FF0500383F3B3
:103560001188BFF36F8FBFF34F8FFEE71B02144A22
:10357000136003F4E0631360019BDBB20E4A137027
:103580004FF0E023D3F8202D42F47002C3F8202D31
:10359000D3F8202D42F07042C3F8202DFFF7A0FF92
:1035A0000024084B1C60FFF7EFFEFFF757F9FFF709
:1035B000CBFE204602B010BD00E400E0541A00200B
:1035C000581A00200C000020EFF305830F2B0FD9B1
:1035D000114A9B5CDBB2114A12789A4208D94FF02B
:1035E000500383F31188BFF36F8FBFF34F8FFEE754
:1035F0004FF0E023D3F80C3D03F4E063084A12686F
:10360000934208D94FF0500383F31188BFF36F8FB3
:10361000BFF34F8FFEE77047F0E300E0541A00203D
:10362000581A002030B589B00446214BDA6942F0BF
:103630000402DA61DB6903F004030193019B02A930
:1036400003A8FDF713FD069BCBB9FDF7EFFC03467E
:103650001848A0FB03239B0C013B1748174A026044
:1036600040F2E732C26043600023036183608361FC
:10367000FDF7C4F8054630B1284609B030BDFDF766
:10368000D5FC4300E4E70C48FCF78EFF0546002814
:10369000F2D11E20FDF7DAFE0F2C01D90125EBE750
:1036A000002221461E20FDF799FE054B1C60E3E732
:1036B0000010024083DE1B435C1A0020000800401B
:1036C0000400002008B539B100224FF4005106482B
:1036D000FDF7FCFD002008BD01224FF40051024817
:1036E000FDF7F4FDF6E700BF0010014008B5012129
:1036F0000846FFF7E7FF4FF4FA70FFF789F800215B
:103700000120FFF7DFFF4FF4FA7000F06BF9EEE7EE
:1037100008B502464FF480710148FDF7D7FD08BD9A
:10372000000C014008B502464FF400710148FDF756
:10373000CDFD08BD000C014008B50120FFF7E8FFF2
:103740000120FFF7EFFF08BD08B50120FFF7EAFFF2
:103750000120FFF7DDFF0020FFF7E4FF0020FFF767
:10376000D7FF08BD08B50020FFF7DCFF0120FFF7F9
:10377000CFFF0120FFF7D6FF08BD38B5054600246E
:103780000CE0802020412840FFF7CCFF0120FFF70C
:10379000BFFF0020FFF7BCFF0134E4B2072CF0D9D3
:1037A0000120FFF7B5FF0020FFF7B2FF38BD10B5CD
:1037B0000446FFF7C9FF7820FFF7DFFF0020FFF77F
:1037C000DCFF2046FFF7D9FFFFF7CCFF10BD10B597
:1037D0000446FFF7B9FF7820FFF7CFFF4020FFF73F
:1037E000CCFF2046FFF7C9FFFFF7BCFF10BD10B5A7
:1037F0000C4640F0B000FFF7DAFF200940F010005F
:10380000FFF7D5FF04F00F00FFF7D1FF10BD38B56B
:10381000002509E00020FFF7DAFF0134E4B214F0DC
:10382000800FF7D00135EDB2072D05D800212846CD
:10383000FFF7DDFF0024F2E738BD0000F8B51546BC
:10384000461E7600F6B24F1EFF00FFB239463046E4
:10385000FFF7CDFF002409E0A5F120030F4A02EB9A
:103860000313185DFFF7B3FF0134E4B2072CF3D95B
:10387000701C3946C0B2FFF7BAFF00240BE0A5F177
:10388000200304F10802054901EB0313985CFFF7DC
:103890009EFF0134E4B2072CF1D9F8BD7C3B00084F
:1038A000F8B507460E461546002406E0A119C9B230
:1038B0003846FFF7C3FF0134E4B22A5D002AF5D190
:1038C000F8BD08B5002204E00133B3F57A7FFBD3DD
:1038D0000132B2F57A7F01D20023F6E7FFF72CFF21
:1038E000AE20FFF764FFD520FFF761FF8020FFF7D0
:1038F0005EFFA820FFF75BFF3F20FFF758FFD320B4
:10390000FFF755FF0020FFF752FF4020FFF74FFF62
:10391000A120FFF74CFFC820FFF749FFDA20FFF78F
:1039200046FF1220FFF743FF8120FFF740FFCF2023
:10393000FFF73DFFD920FFF73AFFF120FFF737FFF0
:10394000DB20FFF734FF3020FFF731FFA420FFF723
:103950002EFFA620FFF72BFF8D20FFF728FF142056
:10396000FFF725FFAF20FFF722FFFFF750FF08BD4D
:1039700008B5094A01210846FFF792FF4FF4FA7093
:10398000FEF746FF054A01210846FFF789FF4FF47D
:10399000FA7000F027F8ECE75C3B00086C3B00088D
:1039A00010B40E4B1968CC6A04FB00FC0C4BA3FB53
:1039B0000C3C4FEA9C1C4B6A002004E0A21A1A44FB
:1039C0001044604507D21A464B6A9A42FCD0F5D2A1
:1039D0009A1A1044F5E710BC704700BF5C1A00202B
:1039E000D34D621038B50546002404E04FF47A70D8
:1039F000FFF7D6FF0134AC42F8DB38BDFDF7DCFF42
:103A00000B480C490C4A002302E0D458C45004333C
:103A1000C4188C42F9D3094A094C002301E0136011
:103A20000432A242FBD300F00FF8FCF7D1FB704741
:103A30000000002010000020744100081000002049
:103A4000A41A0020FEE7000070B500260C4D0D4CB6
:103A5000641BA410A64209D100F030F800260A4DDC
:103A60000A4C641BA410A64205D170BD55F8043B56
:103A700098470136EEE755F8043B98470136F2E7E0
:103A80006C4100086C4100086C410008704100085E
:103A90000A44914200F1FF3300D1704710B511F88C
:103AA000014B914203F8014FF9D110BD0346024486
:103AB000934200D1704703F8011BF9E7F8B500BF46
:103AC000F8BC08BC9E467047F8B500BFF8BC08BCFF
:043AD0009E46704757
:103AD40002030405060708090A0B0C0D0E0F10104B
:103AE40001020000000000000000000001020304C5
:103AF4000607080900000000010203044C65645431
:103B040061736B004F6C65645461736B000000005B
:103B140064656661756C745461736B00143B0008D2
:103B24000000000000000000000000000000000091
:103B34000002000018000000000000000000000067
:103B440049444C4500000000546D725100000000CF
:103B5400546D72205376630048656C6C6F20576F08
:103B6400726C6421000000002020202020202020EE
:103B740020202020000000000000000000000000C1
:103B84000000000000000000000000F80000000039
:103B9400000000333000000000100C06100C06007A
:103BA400000000000000000040C07840C0784000E1
:103BB400043F04043F040400007088FC0830000043
:103BC400001820FF211E0000F008F000E01800009B
:103BD40000211C031E211E0000F008887000000054
:103BE4001E2123241927211010160E0000000000A6
:103BF4000000000000000000000000E018040200C3
:103C0400000000071820400000020418E000000033
:103C14000040201807000000404080F08040400031
:103C24000202010F01020200000000F00000000087
:103C34000101011F0101010000000000000000005B
:103C440080B07000000000000000000000000000D0
:103C54000001010101010101000000000000000059
:103C640000303000000000000000000080601804F4
:103C7400006018060100000000E010080810E000D1
:103C8400000F102020100F00001010F8000000009A
:103C94000020203F202000000070080808887000E1
:103CA4000030282422213000003008888848300061
:103CB4000018202020110E000000C02010F8000081
:103CC40000070424243F240000F80888880808001A
:103CD4000019212020110E0000E01088881800002F
:103CE400000F112020110E0000380808C838080001
:103CF4000000003F00000000007088080888700081
:103D0400001C222121221C0000E010080810E00001
:103D14000000312222110F00000000C0C00000008A
:103D240000000030300000000000008000000000AF
:103D340000008060000000000000804020100800A7
:103D44000001020408102000404040404040400070
:103D5400040404040404040000081020408000004B
:103D64000020100804020100007048080808F00050
:103D74000000003036010000C030C828E810E00020
:103D84000718272423140B000000C038E0000000AB
:103D9400203C23020227382008F888888870000015
:103DA400203F202020110E00C030080808083800E9
:103DB400071820202010080008F808080810E00060
:103DC400203F202020100F0008F88888E808100001
:103DD400203F20202320180008F88888E8081000D5
:103DE400203F200003000000C0300808083800000D
:103DF40007182020221E020008F808000008F8080E
:103E0400203F210101213F20000808F80808000094
:103E14000020203F2020000000000808F8080800C7
:103E2400C08080807F00000008F888C0281808003F
:103E3400203F20012638200008F808000000000078
:103E4400203F20202020300008F8F800F8F808006F
:103E5400203F003F003F200008F830C00008F80869
:103E6400203F200007183F00E01008080810E00079
:103E74000F10202020100F0008F808080808F00090
:103E8400203F210101010000E01008080810E000B3
:103E94000F18242438504F0008F888888888700048
:103EA400203F2000030C30200070880808083800E8
:103EB4000038202121221C00180808F808081800DE
:103EC4000000203F2000000008F808000008F8085F
:103ED400001F202020201F000878880000C8380810
:103EE400000007380E010000F80800F80008F80088
:103EF400033C0700073C0300081868808068180822
:103F040020302C03032C30200838C800C83808009F
:103F14000000203F2000000010080808C8380800EE
:103F24002038262120201800000000FE0202020092
:103F34000000007F40404000000C30C00000000042
:103F4400000000010638C00000020202FE0000006A
:103F5400004040407F000000000004020202040010
:103F6400000000000000000000000000000000004D
:103F74008080808080808080000202040000000035
:103F8400000000000000000000008080808000002D
:103F94000019242222223F2008F80080800000001B
:103FA400003F112020110E000000008080800000DE
:103FB400000E112020201100000000808088F800ED
:103FC400000E112020103F2000008080808000001F
:103FD400001F222222221300008080F08888881883
:103FE4000020203F2020000000008080808080008E
:103FF400006B94949493600008F800808080000023
:10400400203F210000203F200080989800000000FD
:104014000020203F2020000000000080989800002D
:1040240000C08080807F000008F80000808080004D
:10403400203F24022D302000000808F80000000072
:104044000020203F2020000080808080808080002D
:10405400203F20003F20003F8080008080800000BF
:10406400203F210000203F2000008080808000004D
:10407400001F202020201F0080800080800000007E
:1040840080FFA12020110E000000008080808000AD
:10409400000E112020A0FF8080808000808080009E
:1040A40020203F21200001000000808080808000CB
:1040B4000033242424241900008080E08080000040
:1040C4000000001F2020000080800000008080008D
:1040D400001F202020103F208080800000808080EE
:1040E40000010E300806010080800080008080807E
:1040F4000F300C030C300F000080800080808000A3
:104104000020312E0E3120008080800000808080CD
:1041140080818E701806010000808080808080007D
:104124000021302C2221300000000000807C02029B
:1041340000000000003F404000000000FF000000BD
:1041440000000000FF0000000002027C800000006C
:104154000040403F00000000000601010202040488
:08416400000000000000000053
:04416C003501000811
:044170001101000831
:10417400010000001000000000127A00AAAAAAAAF6
:04000005080039FDB9
:00000001FF
